{
  "_format": "hh-sol-artifact-1",
  "contractName": "ERC20Demo",
  "sourceName": "contracts/ERC20Demo.sol",
  "abi": [
    {
      "inputs": [
        {
          "internalType": "string",
          "name": "tokenName",
          "type": "string"
        },
        {
          "internalType": "string",
          "name": "tokenSymbol",
          "type": "string"
        },
        {
          "internalType": "uint256",
          "name": "maxTotalSupply",
          "type": "uint256"
        },
        {
          "internalType": "address",
          "name": "initialOwner",
          "type": "address"
        }
      ],
      "stateMutability": "nonpayable",
      "type": "constructor"
    },
    {
      "inputs": [
        {
          "internalType": "address",
          "name": "spender",
          "type": "address"
        },
        {
          "internalType": "uint256",
          "name": "allowance",
          "type": "uint256"
        },
        {
          "internalType": "uint256",
          "name": "needed",
          "type": "uint256"
        }
      ],
      "name": "ERC20InsufficientAllowance",
      "type": "error"
    },
    {
      "inputs": [
        {
          "internalType": "address",
          "name": "sender",
          "type": "address"
        },
        {
          "internalType": "uint256",
          "name": "balance",
          "type": "uint256"
        },
        {
          "internalType": "uint256",
          "name": "needed",
          "type": "uint256"
        }
      ],
      "name": "ERC20InsufficientBalance",
      "type": "error"
    },
    {
      "inputs": [
        {
          "internalType": "address",
          "name": "approver",
          "type": "address"
        }
      ],
      "name": "ERC20InvalidApprover",
      "type": "error"
    },
    {
      "inputs": [
        {
          "internalType": "address",
          "name": "receiver",
          "type": "address"
        }
      ],
      "name": "ERC20InvalidReceiver",
      "type": "error"
    },
    {
      "inputs": [
        {
          "internalType": "address",
          "name": "sender",
          "type": "address"
        }
      ],
      "name": "ERC20InvalidSender",
      "type": "error"
    },
    {
      "inputs": [
        {
          "internalType": "address",
          "name": "spender",
          "type": "address"
        }
      ],
      "name": "ERC20InvalidSpender",
      "type": "error"
    },
    {
      "inputs": [
        {
          "internalType": "uint256",
          "name": "exceededTotalSupply",
          "type": "uint256"
        },
        {
          "internalType": "uint256",
          "name": "maxTotalSupply",
          "type": "uint256"
        }
      ],
      "name": "MaxTotalSupplyExceeded",
      "type": "error"
    },
    {
      "inputs": [
        {
          "internalType": "address",
          "name": "owner",
          "type": "address"
        }
      ],
      "name": "OwnableInvalidOwner",
      "type": "error"
    },
    {
      "inputs": [
        {
          "internalType": "address",
          "name": "account",
          "type": "address"
        }
      ],
      "name": "OwnableUnauthorizedAccount",
      "type": "error"
    },
    {
      "inputs": [
        {
          "internalType": "uint256",
          "name": "value",
          "type": "uint256"
        }
      ],
      "name": "ReceivingEthUnsupported",
      "type": "error"
    },
    {
      "anonymous": false,
      "inputs": [
        {
          "indexed": true,
          "internalType": "address",
          "name": "owner",
          "type": "address"
        },
        {
          "indexed": true,
          "internalType": "address",
          "name": "spender",
          "type": "address"
        },
        {
          "indexed": false,
          "internalType": "uint256",
          "name": "value",
          "type": "uint256"
        }
      ],
      "name": "Approval",
      "type": "event"
    },
    {
      "anonymous": false,
      "inputs": [
        {
          "indexed": true,
          "internalType": "address",
          "name": "previousOwner",
          "type": "address"
        },
        {
          "indexed": true,
          "internalType": "address",
          "name": "newOwner",
          "type": "address"
        }
      ],
      "name": "OwnershipTransferStarted",
      "type": "event"
    },
    {
      "anonymous": false,
      "inputs": [
        {
          "indexed": true,
          "internalType": "address",
          "name": "previousOwner",
          "type": "address"
        },
        {
          "indexed": true,
          "internalType": "address",
          "name": "newOwner",
          "type": "address"
        }
      ],
      "name": "OwnershipTransferred",
      "type": "event"
    },
    {
      "anonymous": false,
      "inputs": [
        {
          "indexed": true,
          "internalType": "address",
          "name": "from",
          "type": "address"
        },
        {
          "indexed": true,
          "internalType": "address",
          "name": "to",
          "type": "address"
        },
        {
          "indexed": false,
          "internalType": "uint256",
          "name": "value",
          "type": "uint256"
        }
      ],
      "name": "Transfer",
      "type": "event"
    },
    {
      "inputs": [],
      "name": "MAX_TOTAL_SUPPLY",
      "outputs": [
        {
          "internalType": "uint256",
          "name": "",
          "type": "uint256"
        }
      ],
      "stateMutability": "view",
      "type": "function"
    },
    {
      "inputs": [],
      "name": "acceptOwnership",
      "outputs": [],
      "stateMutability": "nonpayable",
      "type": "function"
    },
    {
      "inputs": [
        {
          "internalType": "address",
          "name": "owner",
          "type": "address"
        },
        {
          "internalType": "address",
          "name": "spender",
          "type": "address"
        }
      ],
      "name": "allowance",
      "outputs": [
        {
          "internalType": "uint256",
          "name": "",
          "type": "uint256"
        }
      ],
      "stateMutability": "view",
      "type": "function"
    },
    {
      "inputs": [
        {
          "internalType": "address",
          "name": "spender",
          "type": "address"
        },
        {
          "internalType": "uint256",
          "name": "value",
          "type": "uint256"
        }
      ],
      "name": "approve",
      "outputs": [
        {
          "internalType": "bool",
          "name": "",
          "type": "bool"
        }
      ],
      "stateMutability": "nonpayable",
      "type": "function"
    },
    {
      "inputs": [
        {
          "internalType": "address",
          "name": "account",
          "type": "address"
        }
      ],
      "name": "balanceOf",
      "outputs": [
        {
          "internalType": "uint256",
          "name": "",
          "type": "uint256"
        }
      ],
      "stateMutability": "view",
      "type": "function"
    },
    {
      "inputs": [
        {
          "internalType": "uint256",
          "name": "value",
          "type": "uint256"
        }
      ],
      "name": "burn",
      "outputs": [],
      "stateMutability": "nonpayable",
      "type": "function"
    },
    {
      "inputs": [
        {
          "internalType": "address",
          "name": "account",
          "type": "address"
        },
        {
          "internalType": "uint256",
          "name": "value",
          "type": "uint256"
        }
      ],
      "name": "burnFrom",
      "outputs": [],
      "stateMutability": "nonpayable",
      "type": "function"
    },
    {
      "inputs": [],
      "name": "decimals",
      "outputs": [
        {
          "internalType": "uint8",
          "name": "",
          "type": "uint8"
        }
      ],
      "stateMutability": "view",
      "type": "function"
    },
    {
      "inputs": [
        {
          "internalType": "address",
          "name": "to",
          "type": "address"
        },
        {
          "internalType": "uint256",
          "name": "amount",
          "type": "uint256"
        }
      ],
      "name": "mint",
      "outputs": [],
      "stateMutability": "nonpayable",
      "type": "function"
    },
    {
      "inputs": [],
      "name": "name",
      "outputs": [
        {
          "internalType": "string",
          "name": "",
          "type": "string"
        }
      ],
      "stateMutability": "view",
      "type": "function"
    },
    {
      "inputs": [],
      "name": "owner",
      "outputs": [
        {
          "internalType": "address",
          "name": "",
          "type": "address"
        }
      ],
      "stateMutability": "view",
      "type": "function"
    },
    {
      "inputs": [],
      "name": "pendingOwner",
      "outputs": [
        {
          "internalType": "address",
          "name": "",
          "type": "address"
        }
      ],
      "stateMutability": "view",
      "type": "function"
    },
    {
      "inputs": [],
      "name": "renounceOwnership",
      "outputs": [],
      "stateMutability": "nonpayable",
      "type": "function"
    },
    {
      "inputs": [],
      "name": "symbol",
      "outputs": [
        {
          "internalType": "string",
          "name": "",
          "type": "string"
        }
      ],
      "stateMutability": "view",
      "type": "function"
    },
    {
      "inputs": [],
      "name": "totalSupply",
      "outputs": [
        {
          "internalType": "uint256",
          "name": "",
          "type": "uint256"
        }
      ],
      "stateMutability": "view",
      "type": "function"
    },
    {
      "inputs": [
        {
          "internalType": "address",
          "name": "to",
          "type": "address"
        },
        {
          "internalType": "uint256",
          "name": "value",
          "type": "uint256"
        }
      ],
      "name": "transfer",
      "outputs": [
        {
          "internalType": "bool",
          "name": "",
          "type": "bool"
        }
      ],
      "stateMutability": "nonpayable",
      "type": "function"
    },
    {
      "inputs": [
        {
          "internalType": "address",
          "name": "from",
          "type": "address"
        },
        {
          "internalType": "address",
          "name": "to",
          "type": "address"
        },
        {
          "internalType": "uint256",
          "name": "value",
          "type": "uint256"
        }
      ],
      "name": "transferFrom",
      "outputs": [
        {
          "internalType": "bool",
          "name": "",
          "type": "bool"
        }
      ],
      "stateMutability": "nonpayable",
      "type": "function"
    },
    {
      "inputs": [
        {
          "internalType": "address",
          "name": "newOwner",
          "type": "address"
        }
      ],
      "name": "transferOwnership",
      "outputs": [],
      "stateMutability": "nonpayable",
      "type": "function"
    },
    {
      "stateMutability": "payable",
      "type": "receive"
    }
  ],
  "bytecode": "0x60a06040523480156200001157600080fd5b50604051620024ca380380620024ca833981810160405281019062000037919062000759565b80848481600390816200004b919062000a4a565b5080600490816200005d919062000a4a565b505050600073ffffffffffffffffffffffffffffffffffffffff168173ffffffffffffffffffffffffffffffffffffffff1603620000d55760006040517f1e4fbdf7000000000000000000000000000000000000000000000000000000008152600401620000cc919062000b42565b60405180910390fd5b620000e6816200016160201b60201c565b50620000f76200019a60201b60201c565b600a62000105919062000cef565b8262000112919062000d40565b6080818152505062000157816200012e6200019a60201b60201c565b600a6200013c919062000cef565b6127106200014b919062000d40565b620001a360201b60201c565b5050505062000e31565b600660006101000a81549073ffffffffffffffffffffffffffffffffffffffff021916905562000197816200023060201b60201c565b50565b60006012905090565b600073ffffffffffffffffffffffffffffffffffffffff168273ffffffffffffffffffffffffffffffffffffffff1603620002185760006040517fec442f050000000000000000000000000000000000000000000000000000000081526004016200020f919062000b42565b60405180910390fd5b6200022c60008383620002f660201b60201c565b5050565b6000600560009054906101000a900473ffffffffffffffffffffffffffffffffffffffff16905081600560006101000a81548173ffffffffffffffffffffffffffffffffffffffff021916908373ffffffffffffffffffffffffffffffffffffffff1602179055508173ffffffffffffffffffffffffffffffffffffffff168173ffffffffffffffffffffffffffffffffffffffff167f8be0079c531659141344cd1fd0a4f28419497f9722a3daafe3b4186f6b6457e060405160405180910390a35050565b600073ffffffffffffffffffffffffffffffffffffffff168373ffffffffffffffffffffffffffffffffffffffff16036200034c5780600260008282546200033f919062000d8b565b9250508190555062000422565b60008060008573ffffffffffffffffffffffffffffffffffffffff1673ffffffffffffffffffffffffffffffffffffffff16815260200190815260200160002054905081811015620003db578381836040517fe450d38c000000000000000000000000000000000000000000000000000000008152600401620003d29392919062000dd7565b60405180910390fd5b8181036000808673ffffffffffffffffffffffffffffffffffffffff1673ffffffffffffffffffffffffffffffffffffffff16815260200190815260200160002081905550505b600073ffffffffffffffffffffffffffffffffffffffff168273ffffffffffffffffffffffffffffffffffffffff16036200046d5780600260008282540392505081905550620004ba565b806000808473ffffffffffffffffffffffffffffffffffffffff1673ffffffffffffffffffffffffffffffffffffffff168152602001908152602001600020600082825401925050819055505b8173ffffffffffffffffffffffffffffffffffffffff168373ffffffffffffffffffffffffffffffffffffffff167fddf252ad1be2c89b69c2b068fc378daa952ba7f163c4a11628f55a4df523b3ef8360405162000519919062000e14565b60405180910390a3505050565b6000604051905090565b600080fd5b600080fd5b600080fd5b600080fd5b6000601f19601f8301169050919050565b7f4e487b7100000000000000000000000000000000000000000000000000000000600052604160045260246000fd5b6200058f8262000544565b810181811067ffffffffffffffff82111715620005b157620005b062000555565b5b80604052505050565b6000620005c662000526565b9050620005d4828262000584565b919050565b600067ffffffffffffffff821115620005f757620005f662000555565b5b620006028262000544565b9050602081019050919050565b60005b838110156200062f57808201518184015260208101905062000612565b60008484015250505050565b6000620006526200064c84620005d9565b620005ba565b9050828152602081018484840111156200067157620006706200053f565b5b6200067e8482856200060f565b509392505050565b600082601f8301126200069e576200069d6200053a565b5b8151620006b08482602086016200063b565b91505092915050565b6000819050919050565b620006ce81620006b9565b8114620006da57600080fd5b50565b600081519050620006ee81620006c3565b92915050565b600073ffffffffffffffffffffffffffffffffffffffff82169050919050565b60006200072182620006f4565b9050919050565b620007338162000714565b81146200073f57600080fd5b50565b600081519050620007538162000728565b92915050565b6000806000806080858703121562000776576200077562000530565b5b600085015167ffffffffffffffff81111562000797576200079662000535565b5b620007a58782880162000686565b945050602085015167ffffffffffffffff811115620007c957620007c862000535565b5b620007d78782880162000686565b9350506040620007ea87828801620006dd565b9250506060620007fd8782880162000742565b91505092959194509250565b600081519050919050565b7f4e487b7100000000000000000000000000000000000000000000000000000000600052602260045260246000fd5b600060028204905060018216806200085c57607f821691505b60208210810362000872576200087162000814565b5b50919050565b60008190508160005260206000209050919050565b60006020601f8301049050919050565b600082821b905092915050565b600060088302620008dc7fffffffffffffffffffffffffffffffffffffffffffffffffffffffffffffffff826200089d565b620008e886836200089d565b95508019841693508086168417925050509392505050565b6000819050919050565b60006200092b620009256200091f84620006b9565b62000900565b620006b9565b9050919050565b6000819050919050565b62000947836200090a565b6200095f620009568262000932565b848454620008aa565b825550505050565b600090565b6200097662000967565b620009838184846200093c565b505050565b5b81811015620009ab576200099f6000826200096c565b60018101905062000989565b5050565b601f821115620009fa57620009c48162000878565b620009cf846200088d565b81016020851015620009df578190505b620009f7620009ee856200088d565b83018262000988565b50505b505050565b600082821c905092915050565b600062000a1f60001984600802620009ff565b1980831691505092915050565b600062000a3a838362000a0c565b9150826002028217905092915050565b62000a558262000809565b67ffffffffffffffff81111562000a715762000a7062000555565b5b62000a7d825462000843565b62000a8a828285620009af565b600060209050601f83116001811462000ac2576000841562000aad578287015190505b62000ab9858262000a2c565b86555062000b29565b601f19841662000ad28662000878565b60005b8281101562000afc5784890151825560018201915060208501945060208101905062000ad5565b8683101562000b1c578489015162000b18601f89168262000a0c565b8355505b6001600288020188555050505b505050505050565b62000b3c8162000714565b82525050565b600060208201905062000b59600083018462000b31565b92915050565b7f4e487b7100000000000000000000000000000000000000000000000000000000600052601160045260246000fd5b60008160011c9050919050565b6000808291508390505b600185111562000bed5780860481111562000bc55762000bc462000b5f565b5b600185161562000bd55780820291505b808102905062000be58562000b8e565b945062000ba5565b94509492505050565b60008262000c08576001905062000cdb565b8162000c18576000905062000cdb565b816001811462000c31576002811462000c3c5762000c72565b600191505062000cdb565b60ff84111562000c515762000c5062000b5f565b5b8360020a91508482111562000c6b5762000c6a62000b5f565b5b5062000cdb565b5060208310610133831016604e8410600b841016171562000cac5782820a90508381111562000ca65762000ca562000b5f565b5b62000cdb565b62000cbb848484600162000b9b565b9250905081840481111562000cd55762000cd462000b5f565b5b81810290505b9392505050565b600060ff82169050919050565b600062000cfc82620006b9565b915062000d098362000ce2565b925062000d387fffffffffffffffffffffffffffffffffffffffffffffffffffffffffffffffff848462000bf6565b905092915050565b600062000d4d82620006b9565b915062000d5a83620006b9565b925082820262000d6a81620006b9565b9150828204841483151762000d845762000d8362000b5f565b5b5092915050565b600062000d9882620006b9565b915062000da583620006b9565b925082820190508082111562000dc05762000dbf62000b5f565b5b92915050565b62000dd181620006b9565b82525050565b600060608201905062000dee600083018662000b31565b62000dfd602083018562000dc6565b62000e0c604083018462000dc6565b949350505050565b600060208201905062000e2b600083018462000dc6565b92915050565b60805161166f62000e5b6000396000818161057d015281816105a901526105f6015261166f6000f3fe60806040526004361061010d5760003560e01c8063715018a61161009557806395d89b411161006457806395d89b411461038b578063a9059cbb146103b6578063dd62ed3e146103f3578063e30c397814610430578063f2fde38b1461045b5761014f565b8063715018a61461030957806379ba50971461032057806379cc6790146103375780638da5cb5b146103605761014f565b8063313ce567116100dc578063313ce5671461022457806333039d3d1461024f57806340c10f191461027a57806342966c68146102a357806370a08231146102cc5761014f565b806306fdde0314610154578063095ea7b31461017f57806318160ddd146101bc57806323b872dd146101e75761014f565b3661014f57346040517fad7d67f300000000000000000000000000000000000000000000000000000000815260040161014691906111f6565b60405180910390fd5b600080fd5b34801561016057600080fd5b50610169610484565b60405161017691906112a1565b60405180910390f35b34801561018b57600080fd5b506101a660048036038101906101a19190611352565b610516565b6040516101b391906113ad565b60405180910390f35b3480156101c857600080fd5b506101d1610539565b6040516101de91906111f6565b60405180910390f35b3480156101f357600080fd5b5061020e600480360381019061020991906113c8565b610543565b60405161021b91906113ad565b60405180910390f35b34801561023057600080fd5b50610239610572565b6040516102469190611437565b60405180910390f35b34801561025b57600080fd5b5061026461057b565b60405161027191906111f6565b60405180910390f35b34801561028657600080fd5b506102a1600480360381019061029c9190611352565b61059f565b005b3480156102af57600080fd5b506102ca60048036038101906102c59190611452565b610660565b005b3480156102d857600080fd5b506102f360048036038101906102ee919061147f565b610674565b60405161030091906111f6565b60405180910390f35b34801561031557600080fd5b5061031e6106bc565b005b34801561032c57600080fd5b506103356106d0565b005b34801561034357600080fd5b5061035e60048036038101906103599190611352565b61075f565b005b34801561036c57600080fd5b5061037561077f565b60405161038291906114bb565b60405180910390f35b34801561039757600080fd5b506103a06107a9565b6040516103ad91906112a1565b60405180910390f35b3480156103c257600080fd5b506103dd60048036038101906103d89190611352565b61083b565b6040516103ea91906113ad565b60405180910390f35b3480156103ff57600080fd5b5061041a600480360381019061041591906114d6565b61085e565b60405161042791906111f6565b60405180910390f35b34801561043c57600080fd5b506104456108e5565b60405161045291906114bb565b60405180910390f35b34801561046757600080fd5b50610482600480360381019061047d919061147f565b61090f565b005b60606003805461049390611545565b80601f01602080910402602001604051908101604052809291908181526020018280546104bf90611545565b801561050c5780601f106104e15761010080835404028352916020019161050c565b820191906000526020600020905b8154815290600101906020018083116104ef57829003601f168201915b5050505050905090565b6000806105216109bc565b905061052e8185856109c4565b600191505092915050565b6000600254905090565b60008061054e6109bc565b905061055b8582856109d6565b610566858585610a6b565b60019150509392505050565b60006012905090565b7f000000000000000000000000000000000000000000000000000000000000000081565b6105a7610b5f565b7f0000000000000000000000000000000000000000000000000000000000000000816105d1610539565b6105db91906115a5565b111561065257806105ea610539565b6105f491906115a5565b7f00000000000000000000000000000000000000000000000000000000000000006040517f24f032b30000000000000000000000000000000000000000000000000000000081526004016106499291906115d9565b60405180910390fd5b61065c8282610be6565b5050565b61067161066b6109bc565b82610c68565b50565b60008060008373ffffffffffffffffffffffffffffffffffffffff1673ffffffffffffffffffffffffffffffffffffffff168152602001908152602001600020549050919050565b6106c4610b5f565b6106ce6000610cea565b565b60006106da6109bc565b90508073ffffffffffffffffffffffffffffffffffffffff166106fb6108e5565b73ffffffffffffffffffffffffffffffffffffffff161461075357806040517f118cdaa700000000000000000000000000000000000000000000000000000000815260040161074a91906114bb565b60405180910390fd5b61075c81610cea565b50565b6107718261076b6109bc565b836109d6565b61077b8282610c68565b5050565b6000600560009054906101000a900473ffffffffffffffffffffffffffffffffffffffff16905090565b6060600480546107b890611545565b80601f01602080910402602001604051908101604052809291908181526020018280546107e490611545565b80156108315780601f1061080657610100808354040283529160200191610831565b820191906000526020600020905b81548152906001019060200180831161081457829003601f168201915b5050505050905090565b6000806108466109bc565b9050610853818585610a6b565b600191505092915050565b6000600160008473ffffffffffffffffffffffffffffffffffffffff1673ffffffffffffffffffffffffffffffffffffffff16815260200190815260200160002060008373ffffffffffffffffffffffffffffffffffffffff1673ffffffffffffffffffffffffffffffffffffffff16815260200190815260200160002054905092915050565b6000600660009054906101000a900473ffffffffffffffffffffffffffffffffffffffff16905090565b610917610b5f565b80600660006101000a81548173ffffffffffffffffffffffffffffffffffffffff021916908373ffffffffffffffffffffffffffffffffffffffff1602179055508073ffffffffffffffffffffffffffffffffffffffff1661097761077f565b73ffffffffffffffffffffffffffffffffffffffff167f38d16b8cac22d99fc7c124b9cd0de2d3fa1faef420bfe791d8c362d765e2270060405160405180910390a350565b600033905090565b6109d18383836001610d1b565b505050565b60006109e2848461085e565b90507fffffffffffffffffffffffffffffffffffffffffffffffffffffffffffffffff811015610a655781811015610a55578281836040517ffb8f41b2000000000000000000000000000000000000000000000000000000008152600401610a4c93929190611602565b60405180910390fd5b610a6484848484036000610d1b565b5b50505050565b600073ffffffffffffffffffffffffffffffffffffffff168373ffffffffffffffffffffffffffffffffffffffff1603610add5760006040517f96c6fd1e000000000000000000000000000000000000000000000000000000008152600401610ad491906114bb565b60405180910390fd5b600073ffffffffffffffffffffffffffffffffffffffff168273ffffffffffffffffffffffffffffffffffffffff1603610b4f5760006040517fec442f05000000000000000000000000000000000000000000000000000000008152600401610b4691906114bb565b60405180910390fd5b610b5a838383610ef2565b505050565b610b676109bc565b73ffffffffffffffffffffffffffffffffffffffff16610b8561077f565b73ffffffffffffffffffffffffffffffffffffffff1614610be457610ba86109bc565b6040517f118cdaa7000000000000000000000000000000000000000000000000000000008152600401610bdb91906114bb565b60405180910390fd5b565b600073ffffffffffffffffffffffffffffffffffffffff168273ffffffffffffffffffffffffffffffffffffffff1603610c585760006040517fec442f05000000000000000000000000000000000000000000000000000000008152600401610c4f91906114bb565b60405180910390fd5b610c6460008383610ef2565b5050565b600073ffffffffffffffffffffffffffffffffffffffff168273ffffffffffffffffffffffffffffffffffffffff1603610cda5760006040517f96c6fd1e000000000000000000000000000000000000000000000000000000008152600401610cd191906114bb565b60405180910390fd5b610ce682600083610ef2565b5050565b600660006101000a81549073ffffffffffffffffffffffffffffffffffffffff0219169055610d1881611117565b50565b600073ffffffffffffffffffffffffffffffffffffffff168473ffffffffffffffffffffffffffffffffffffffff1603610d8d5760006040517fe602df05000000000000000000000000000000000000000000000000000000008152600401610d8491906114bb565b60405180910390fd5b600073ffffffffffffffffffffffffffffffffffffffff168373ffffffffffffffffffffffffffffffffffffffff1603610dff5760006040517f94280d62000000000000000000000000000000000000000000000000000000008152600401610df691906114bb565b60405180910390fd5b81600160008673ffffffffffffffffffffffffffffffffffffffff1673ffffffffffffffffffffffffffffffffffffffff16815260200190815260200160002060008573ffffffffffffffffffffffffffffffffffffffff1673ffffffffffffffffffffffffffffffffffffffff168152602001908152602001600020819055508015610eec578273ffffffffffffffffffffffffffffffffffffffff168473ffffffffffffffffffffffffffffffffffffffff167f8c5be1e5ebec7d5bd14f71427d1e84f3dd0314c0f7b2291e5b200ac8c7c3b92584604051610ee391906111f6565b60405180910390a35b50505050565b600073ffffffffffffffffffffffffffffffffffffffff168373ffffffffffffffffffffffffffffffffffffffff1603610f44578060026000828254610f3891906115a5565b92505081905550611017565b60008060008573ffffffffffffffffffffffffffffffffffffffff1673ffffffffffffffffffffffffffffffffffffffff16815260200190815260200160002054905081811015610fd0578381836040517fe450d38c000000000000000000000000000000000000000000000000000000008152600401610fc793929190611602565b60405180910390fd5b8181036000808673ffffffffffffffffffffffffffffffffffffffff1673ffffffffffffffffffffffffffffffffffffffff16815260200190815260200160002081905550505b600073ffffffffffffffffffffffffffffffffffffffff168273ffffffffffffffffffffffffffffffffffffffff160361106057806002600082825403925050819055506110ad565b806000808473ffffffffffffffffffffffffffffffffffffffff1673ffffffffffffffffffffffffffffffffffffffff168152602001908152602001600020600082825401925050819055505b8173ffffffffffffffffffffffffffffffffffffffff168373ffffffffffffffffffffffffffffffffffffffff167fddf252ad1be2c89b69c2b068fc378daa952ba7f163c4a11628f55a4df523b3ef8360405161110a91906111f6565b60405180910390a3505050565b6000600560009054906101000a900473ffffffffffffffffffffffffffffffffffffffff16905081600560006101000a81548173ffffffffffffffffffffffffffffffffffffffff021916908373ffffffffffffffffffffffffffffffffffffffff1602179055508173ffffffffffffffffffffffffffffffffffffffff168173ffffffffffffffffffffffffffffffffffffffff167f8be0079c531659141344cd1fd0a4f28419497f9722a3daafe3b4186f6b6457e060405160405180910390a35050565b6000819050919050565b6111f0816111dd565b82525050565b600060208201905061120b60008301846111e7565b92915050565b600081519050919050565b600082825260208201905092915050565b60005b8381101561124b578082015181840152602081019050611230565b60008484015250505050565b6000601f19601f8301169050919050565b600061127382611211565b61127d818561121c565b935061128d81856020860161122d565b61129681611257565b840191505092915050565b600060208201905081810360008301526112bb8184611268565b905092915050565b600080fd5b600073ffffffffffffffffffffffffffffffffffffffff82169050919050565b60006112f3826112c8565b9050919050565b611303816112e8565b811461130e57600080fd5b50565b600081359050611320816112fa565b92915050565b61132f816111dd565b811461133a57600080fd5b50565b60008135905061134c81611326565b92915050565b60008060408385031215611369576113686112c3565b5b600061137785828601611311565b92505060206113888582860161133d565b9150509250929050565b60008115159050919050565b6113a781611392565b82525050565b60006020820190506113c2600083018461139e565b92915050565b6000806000606084860312156113e1576113e06112c3565b5b60006113ef86828701611311565b935050602061140086828701611311565b92505060406114118682870161133d565b9150509250925092565b600060ff82169050919050565b6114318161141b565b82525050565b600060208201905061144c6000830184611428565b92915050565b600060208284031215611468576114676112c3565b5b60006114768482850161133d565b91505092915050565b600060208284031215611495576114946112c3565b5b60006114a384828501611311565b91505092915050565b6114b5816112e8565b82525050565b60006020820190506114d060008301846114ac565b92915050565b600080604083850312156114ed576114ec6112c3565b5b60006114fb85828601611311565b925050602061150c85828601611311565b9150509250929050565b7f4e487b7100000000000000000000000000000000000000000000000000000000600052602260045260246000fd5b6000600282049050600182168061155d57607f821691505b6020821081036115705761156f611516565b5b50919050565b7f4e487b7100000000000000000000000000000000000000000000000000000000600052601160045260246000fd5b60006115b0826111dd565b91506115bb836111dd565b92508282019050808211156115d3576115d2611576565b5b92915050565b60006040820190506115ee60008301856111e7565b6115fb60208301846111e7565b9392505050565b600060608201905061161760008301866114ac565b61162460208301856111e7565b61163160408301846111e7565b94935050505056fea2646970667358221220fcd71e56e0d28c255996eee319879eb05841ca3ac5c4eb5ae879e926478f5e7364736f6c63430008150033",
  "linkReferences": {},
  "deployedLinkReferences": {}
}